:020000020000FC
:040000000C9422003A
:040010000C948E12AC
:100040000C9404130FEF0DBF18E01EBF00E80093DF
:10005000610005E00093610000E00093C1000FEF34
:100060000AB900E0DBB90FE304B900E005B900E329
:1000700007B90FE008B960E010E020E030E041E0AF
:100080000E9486120FE000936C0002E0009368006B
:100090007894603081F06130A1F06230D1F063304B
:1000A000F1F0643011F1653031F1663051F16730B3
:1000B00081F10C9449000E9491000E944C010C9423
:1000C00049000E9491000E94A9000E941B080C9404
:1000D00049000E9422010E944C010C9449000E9498
:1000E00041010E944C010C9449000E94DD000E94D5
:1000F0001B080C9449000E9417010E941B080C94D5
:1001000049000E9438010E9422010E94AE0B0C940B
:1001100049000E942D010E94AE0B0C9449000C94E2
:1001200049001C330CF4089510E023950E94D70079
:100130002C3309F0089520E033950E94D700383120
:1001400009F0089530E00E94D70043950E94A9006D
:1001500008955030B1F0513021F1523091F05330C8
:10016000D1F0543071F05530B1F0563051F0573075
:1001700041F0583081F0593021F05A3061F05B3055
:1001800001F040320CF4089541E053955C3009F0E1
:10019000089550E008954F310CF4089541E05395CF
:1001A00008954D310CF4089541E0539508952713B7
:1001B000089538130895189A0895C030B1F0C130E9
:1001C00051F1C23091F0C330D9F0C43071F0C53074
:1001D000B9F0C63051F0C73041F0C83089F0C930AD
:1001E00021F0CA3069F0CB3001F0B0321CF4B030ED
:1001F00021F0089541E0B1E00895BFE14FE1089595
:100200004F311CF4B03021F0089541E0B1E0089581
:10021000BEE14EE108954D311CF4B03021F0089557
:1002200041E0B1E00895BCE14CE108950895C0308B
:1002300034F0CC3009F00895C0E050E00895CBE0F0
:100240005BE008959C3319F0903024F0089590E01D
:1002500020E008959BE32BE30895883119F0803066
:1002600024F0089580E0A0E0089587E1A7E10895D3
:100270007C3319F070301CF0089570E008957BE332
:100280000895A83119F0A03024F00895A0E030E0DE
:100290000895A7E137E1089520300FB701FD0C94D0
:1002A0007A0221300FB701FD0C948A0222300FB779
:1002B00001FD0C949A0223300FB701FD0C94AA02A1
:1002C00024300FB701FD0C94BA0225300FB701FDA1
:1002D0000C94CA0226300FB701FD0C94DA022730C5
:1002E0000FB701FD0C94EA0228300FB701FD0C9402
:1002F000FA0229300FB701FD0C940A032A300FB718
:1003000001FD0C941A032B300FB701FD0C942A0346
:100310002C300FB701FD0C943A032D300FB701FDBF
:100320000C944A032E300FB701FD0C945A032F3062
:100330000FB701FD0C946A0320310FB701FD0C9437
:100340007A0321310FB701FD0C948A0322310FB7D4
:1003500001FD0C949A0323310FB701FD0C94AA03FD
:1003600024310FB701FD0C94BA0325310FB701FDFD
:100370000C94CA0326310FB701FD0C94DA03273120
:100380000FB701FD0C94EA0328310FB701FD0C945F
:10039000FA0329310FB701FD0C940A042A310FB773
:1003A00001FD0C941A042B310FB701FD0C942A04A3
:1003B0002C310FB701FD0C943A042D310FB701FD1C
:1003C0000C944A042E310FB701FD0C945A042F31BE
:1003D0000FB701FD0C946A0420320FB701FD0C9495
:1003E0007A0421320FB701FD0C948A0422320FB730
:1003F00001FD0C949A0423320FB701FD0C94AA045A
:1004000024320FB701FD0C94BA0425320FB701FD59
:100410000C94CA0426320FB701FD0C94DA0427327B
:100420000FB701FD0C94EA0428320FB701FD0C94BC
:10043000FA0429320FB701FD0C940A052A320FB7CE
:1004400001FD0C941A052B320FB701FD0C942A05FF
:100450002C320FB701FD0C943A052D320FB701FD78
:100460000C944A052E320FB701FD0C945A052F3219
:100470000FB701FD0C946A0520330FB701FD0C94F2
:100480007A0521330FB701FD0C948A0522330FB78B
:1004900001FD0C949A0523330FB701FD0C94AA05B6
:1004A00024330FB701FD0C94BA0525330FB701FDB6
:1004B0000C94CA0526330FB701FD0C94DA052733D7
:1004C0000FB701FD0C94EA0528330FB701FD0C941A
:1004D000FA0529330FB701FD0C940A062A330FB72A
:1004E00001FD0C941A062B330FB701FD0C942A065C
:1004F0000C943A0609B1DFE3299ADBB90E94811214
:10050000299809B1DFE32A9ADBB90E9481122A985F
:100510000C943A0609B1D6E0299ADBB90E948112FF
:10052000299809B1DFE32A9ADBB90E9481122A983F
:100530000C943A0609B1DBE5299ADBB90E948112D5
:10054000299809B1DFE32A9ADBB90E9481122A981F
:100550000C943A0609B1DFE4299ADBB90E948112B2
:10056000299809B1DFE32A9ADBB90E9481122A98FF
:100570000C943A0609B1D6E6299ADBB90E94811299
:10058000299809B1DFE32A9ADBB90E9481122A98DF
:100590000C943A0609B1DDE6299ADBB90E94811272
:1005A000299809B1DFE32A9ADBB90E9481122A98BF
:1005B0000C943A0609B1DDE7299ADBB90E94811251
:1005C000299809B1DFE32A9ADBB90E9481122A989F
:1005D0000C943A0609B1D7E0299ADBB90E9481123E
:1005E000299809B1DFE32A9ADBB90E9481122A987F
:1005F0000C943A0609B1DFE7299ADBB90E9481120F
:10060000299809B1DFE32A9ADBB90E9481122A985E
:100610000C943A0609B1D7E6299ADBB90E948112F7
:10062000299809B1DFE32A9ADBB90E9481122A983E
:100630000C943A0609B1DFE3299ADBB90E948112D2
:10064000299809B1D6E02A9ADBB90E9481122A982A
:100650000C943A0609B1D6E0299ADBB90E948112BE
:10066000299809B1D6E02A9ADBB90E9481122A980A
:100670000C943A0609B1DBE5299ADBB90E94811294
:10068000299809B1D6E02A9ADBB90E9481122A98EA
:100690000C943A0609B1DFE4299ADBB90E94811271
:1006A000299809B1D6E02A9ADBB90E9481122A98CA
:1006B0000C943A0609B1D6E6299ADBB90E94811258
:1006C000299809B1D6E02A9ADBB90E9481122A98AA
:1006D0000C943A0609B1DDE6299ADBB90E94811231
:1006E000299809B1D6E02A9ADBB90E9481122A988A
:1006F0000C943A0609B1DDE7299ADBB90E94811210
:10070000299809B1D6E02A9ADBB90E9481122A9869
:100710000C943A0609B1D7E0299ADBB90E948112FC
:10072000299809B1D6E02A9ADBB90E9481122A9849
:100730000C943A0609B1DFE7299ADBB90E948112CD
:10074000299809B1D6E02A9ADBB90E9481122A9829
:100750000C943A0609B1D7E6299ADBB90E948112B6
:10076000299809B1D6E02A9ADBB90E9481122A9809
:100770000C943A0609B1DFE3299ADBB90E94811291
:10078000299809B1DBE52A9ADBB90E9481122A98DF
:100790000C943A0609B1D6E0299ADBB90E9481127D
:1007A000299809B1DBE52A9ADBB90E9481122A98BF
:1007B0000C943A0609B1DBE5299ADBB90E94811253
:1007C000299809B1DBE52A9ADBB90E9481122A989F
:1007D0000C943A0609B1DFE4299ADBB90E94811230
:1007E000299809B1DBE52A9ADBB90E9481122A987F
:1007F0000C943A0609B1D6E6299ADBB90E94811217
:10080000299809B1DBE52A9ADBB90E9481122A985E
:100810000C943A0609B1DDE6299ADBB90E948112EF
:10082000299809B1DBE52A9ADBB90E9481122A983E
:100830000C943A0609B1DDE7299ADBB90E948112CE
:10084000299809B1DBE52A9ADBB90E9481122A981E
:100850000C943A0609B1D7E0299ADBB90E948112BB
:10086000299809B1DBE52A9ADBB90E9481122A98FE
:100870000C943A0609B1DFE7299ADBB90E9481128C
:10088000299809B1DBE52A9ADBB90E9481122A98DE
:100890000C943A0609B1D7E6299ADBB90E94811275
:1008A000299809B1DBE52A9ADBB90E9481122A98BE
:1008B0000C943A0609B1DFE3299ADBB90E94811250
:1008C000299809B1DFE42A9ADBB90E9481122A989B
:1008D0000C943A0609B1D6E0299ADBB90E9481123C
:1008E000299809B1DFE42A9ADBB90E9481122A987B
:1008F0000C943A0609B1DBE5299ADBB90E94811212
:10090000299809B1DFE42A9ADBB90E9481122A985A
:100910000C943A0609B1DFE4299ADBB90E948112EE
:10092000299809B1DFE42A9ADBB90E9481122A983A
:100930000C943A0609B1D6E6299ADBB90E948112D5
:10094000299809B1DFE42A9ADBB90E9481122A981A
:100950000C943A0609B1DDE6299ADBB90E948112AE
:10096000299809B1DFE42A9ADBB90E9481122A98FA
:100970000C943A0609B1DDE7299ADBB90E9481128D
:10098000299809B1DFE42A9ADBB90E9481122A98DA
:100990000C943A0609B1D7E0299ADBB90E9481127A
:1009A000299809B1DFE42A9ADBB90E9481122A98BA
:1009B0000C943A0609B1DFE7299ADBB90E9481124B
:1009C000299809B1DFE42A9ADBB90E9481122A989A
:1009D0000C943A0609B1D7E6299ADBB90E94811234
:1009E000299809B1DFE42A9ADBB90E9481122A987A
:1009F0000C943A0609B1DFE3299ADBB90E9481120F
:100A0000299809B1D6E62A9ADBB90E9481122A9860
:100A10000C943A0609B1D6E0299ADBB90E948112FA
:100A2000299809B1D6E62A9ADBB90E9481122A9840
:100A30000C943A0609B1DBE5299ADBB90E948112D0
:100A4000299809B1D6E62A9ADBB90E9481122A9820
:100A50000C943A0609B1DFE4299ADBB90E948112AD
:100A6000299809B1D6E62A9ADBB90E9481122A9800
:100A70000C943A0609B1D6E6299ADBB90E94811294
:100A8000299809B1D6E62A9ADBB90E9481122A98E0
:100A90000C943A0609B1DDE6299ADBB90E9481126D
:100AA000299809B1D6E62A9ADBB90E9481122A98C0
:100AB0000C943A0609B1DDE7299ADBB90E9481124C
:100AC000299809B1D6E62A9ADBB90E9481122A98A0
:100AD0000C943A0609B1D7E0299ADBB90E94811239
:100AE000299809B1D6E62A9ADBB90E9481122A9880
:100AF0000C943A0609B1DFE7299ADBB90E9481120A
:100B0000299809B1D6E62A9ADBB90E9481122A985F
:100B10000C943A0609B1D7E6299ADBB90E948112F2
:100B2000299809B1D6E62A9ADBB90E9481122A983F
:100B30000C943A0609B1DFE3299ADBB90E948112CD
:100B4000299809B1DDE62A9ADBB90E9481122A9818
:100B50000C943A0609B1D6E0299ADBB90E948112B9
:100B6000299809B1DDE62A9ADBB90E9481122A98F8
:100B70000C943A0609B1DBE5299ADBB90E9481128F
:100B8000299809B1DDE62A9ADBB90E9481122A98D8
:100B90000C943A0609B1DFE4299ADBB90E9481126C
:100BA000299809B1DDE62A9ADBB90E9481122A98B8
:100BB0000C943A0609B1D6E6299ADBB90E94811253
:100BC000299809B1DDE62A9ADBB90E9481122A9898
:100BD0000C943A0609B1DDE6299ADBB90E9481122C
:100BE000299809B1DDE62A9ADBB90E9481122A9878
:100BF0000C943A0609B1D7E0299ADBB90E94811218
:100C0000299809B1DDE62A9ADBB90E9481122A9857
:100C10000C943A0609B1D7E0299ADBB90E948112F7
:100C2000299809B1DDE62A9ADBB90E9481122A9837
:100C30000C943A0609B1DFE7299ADBB90E948112C8
:100C4000299809B1DDE62A9ADBB90E9481122A9817
:100C50000C943A0609B1D7E6299ADBB90E948112B1
:100C6000299809B1DDE62A9ADBB90E9481122A98F7
:100C70000C943A0630300FB701FD0C94B2063130B7
:100C80000FB701FD0C94C10632300FB701FD0C9473
:100C9000D00633300FB701FD0C94DF0634300FB7A8
:100CA00001FD0C94EE0635300FB701FD0C94FD06E6
:100CB00036300FB701FD0C940C0737300FB701FD2C
:100CC0000C941B0738300FB701FD0C942A073930FC
:100CD0000FB701FD0C9439073A300FB701FD0C94A2
:100CE00048073B300FB701FD0C9457073C300FB756
:100CF00001FD0C9466073D300FB701FD0C9475079C
:100D00003E300FB701FD0C9484073F300FB701FD53
:100D10000C94930730310FB701FD0C94A2073131C9
:100D20000FB701FD0C94B10732310FB701FD0C94E0
:100D3000C00733310FB701FD0C94CF0734310FB723
:100D400001FD0C94DE0735310FB701FD0C94ED0762
:100D500036310FB701FD0C94FC0737310FB701FD99
:100D60000C940B0809B1DFE32B9ADBB90E948112C6
:100D70002B9809B1DFE32C9ADBB90E9481122C98E1
:100D8000089509B1D6E02B9ADBB90E9481122B9805
:100D900009B1DFE32C9ADBB90E9481122C980895E7
:100DA00009B1DBE52B9ADBB90E9481122B9809B1BE
:100DB000DFE32C9ADBB90E9481122C98089509B1C7
:100DC000DFE42B9ADBB90E9481122B9809B1DFE393
:100DD0002C9ADBB90E9481122C98089509B1D6E6AD
:100DE0002B9ADBB90E9481122B9809B1DFE32C9A70
:100DF000DBB90E9481122C98089509B1DDE62B9A87
:100E0000DBB90E9481122B9809B1DFE32C9ADBB980
:100E10000E9481122C98089509B1DDE72B9ADBB965
:100E20000E9481122B9809B1DFE32C9ADBB90E9452
:100E300081122C98089509B1D7E02B9ADBB90E9452
:100E400081122B9809B1DFE32C9ADBB90E94811241
:100E50002C98089509B1DFE72B9ADBB90E94811223
:100E60002B9809B1DFE32C9ADBB90E9481122C98F0
:100E7000089509B1D7E62B9ADBB90E9481122B980D
:100E800009B1DFE32C9ADBB90E9481122C980895F6
:100E900009B1DFE32B9ADBB90E9481122B9809B1CB
:100EA000D6E02C9ADBB90E9481122C98089509B1E2
:100EB000D6E02B9ADBB90E9481122B9809B1D6E0BB
:100EC0002C9ADBB90E9481122C98089509B1DBE5B8
:100ED0002B9ADBB90E9481122B9809B1D6E02C9A8B
:100EE000DBB90E9481122C98089509B1DFE42B9A96
:100EF000DBB90E9481122B9809B1D6E02C9ADBB99C
:100F00000E9481122C98089509B1D6E62B9ADBB97C
:100F10000E9481122B9809B1D6E02C9ADBB90E946D
:100F200081122C98089509B1DDE62B9ADBB90E9455
:100F300081122B9809B1D6E02C9ADBB90E9481125C
:100F40002C98089509B1DDE72B9ADBB90E94811234
:100F50002B9809B1D6E02C9ADBB90E9481122C980B
:100F6000089509B1D7E02B9ADBB90E9481122B9822
:100F700009B1D6E02C9ADBB90E9481122C98089511
:100F800009B1DFE72B9ADBB90E9481122B9809B1D6
:100F9000D6E02C9ADBB90E9481122C98089509B1F1
:100FA000D7E62B9ADBB90E9481122B9809B1D6E0C3
:100FB0002C9ADBB90E9481122C98089509B1DFE3C5
:100FC0002B9ADBB90E9481122B9809B1DBE52C9A90
:100FD000DBB90E9481122C98089509B1D6E02B9AB2
:100FE000DBB90E9481122B9809B1DBE52C9ADBB9A1
:100FF0000E9481122C98089509B1DBE52B9ADBB988
:101000000E9481122B9809B1DBE52C9ADBB90E9472
:1010100081122C98089509B1DFE42B9ADBB90E9464
:1010200081122B9809B1DBE52C9ADBB90E94811261
:101030002C980895089540300FB701FD0C94BD0819
:1010400041300FB701FD0C94CD0842300FB701FDC0
:101050000C94DD0843300FB701FD0C94ED084430CB
:101060000FB701FD0C94FD0845300FB701FD0C943E
:101070000D0946300FB701FD0C941D0947300FB71D
:1010800001FD0C942D0948300FB701FD0C943D096A
:1010900049300FB701FD0C944D094A300FB701FDDF
:1010A0000C945D094B300FB701FD0C946D094C3069
:1010B0000FB701FD0C947D094D300FB701FD0C9465
:1010C0008D094E300FB701FD0C949D094F300FB7BD
:1010D00001FD0C94AD0940310FB701FD0C94BD0921
:1010E00041310FB701FD0C94CD0942310FB701FD1D
:1010F0000C94DD0943310FB701FD0C94ED09443127
:101100000FB701FD0C94FD0945310FB701FD0C949B
:101110000D0A46310FB701FD0C941D0A47310FB778
:1011200001FD0C942D0A48310FB701FD0C943D0AC6
:1011300049310FB701FD0C944D0A4A310FB701FD3B
:101140000C945D0A4B310FB701FD0C946D0A4C31C4
:101150000FB701FD0C947D0A4D310FB701FD0C94C2
:101160008D0A4E310FB701FD0C949D0A4F310FB718
:1011700001FD0C94AD0A0C94BD0A09B1DFE3299A74
:10118000DBB90E948112299809B1DFE32A9ADBB901
:101190000E9481122A980C94BD0A09B1D6E0299ABE
:1011A000DBB90E948112299809B1DFE32A9ADBB9E1
:1011B0000E9481122A980C94BD0A09B1DBE5299A94
:1011C000DBB90E948112299809B1DFE32A9ADBB9C1
:1011D0000E9481122A980C94BD0A09B1DFE4299A71
:1011E000DBB90E948112299809B1DFE32A9ADBB9A1
:1011F0000E9481122A980C94BD0A09B1D6E6299A58
:10120000DBB90E948112299809B1DFE32A9ADBB980
:101210000E9481122A980C94BD0A09B1DDE6299A30
:10122000DBB90E948112299809B1DFE32A9ADBB960
:101230000E9481122A980C94BD0A09B1DDEF299A07
:10124000DBB90E948112299809B1DFE32A9ADBB940
:101250000E9481122A980C94BD0A09B1D7E0299AFC
:10126000DBB90E948112299809B1DFE32A9ADBB920
:101270000E9481122A980C94BD0A09B1DFE7299ACD
:10128000DBB90E948112299809B1DFE32A9ADBB900
:101290000E9481122A980C94BD0A09B1D7E6299AB6
:1012A000DBB90E948112299809B1DFE32A9ADBB9E0
:1012B0000E9481122A980C94BD0A09B1DFE3299A91
:1012C000DBB90E948112299809B1D6E02A9ADBB9CC
:1012D0000E9481122A980C94BD0A09B1D6E0299A7D
:1012E000DBB90E948112299809B1D6E02A9ADBB9AC
:1012F0000E9481122A980C94BD0A09B1DBE5299A53
:10130000DBB90E948112299809B1D6E02A9ADBB98B
:101310000E9481122A980C94BD0A09B1DFE4299A2F
:10132000DBB90E948112299809B1D6E02A9ADBB96B
:101330000E9481122A980C94BD0A09B1D6E6299A16
:10134000DBB90E948112299809B1D6E02A9ADBB94B
:101350000E9481122A980C94BD0A09B1DDE6299AEF
:10136000DBB90E948112299809B1D6E02A9ADBB92B
:101370000E9481122A980C94BD0A09B1DDEF299AC6
:10138000DBB90E948112299809B1D6E02A9ADBB90B
:101390000E9481122A980C94BD0A09B1D7E0299ABB
:1013A000DBB90E948112299809B1D6E02A9ADBB9EB
:1013B0000E9481122A980C94BD0A09B1DFE7299A8C
:1013C000DBB90E948112299809B1D6E02A9ADBB9CB
:1013D0000E9481122A980C94BD0A09B1D7E6299A75
:1013E000DBB90E948112299809B1D6E02A9ADBB9AB
:1013F0000E9481122A980C94BD0A09B1DFE3299A50
:10140000DBB90E948112299809B1DBE52A9ADBB980
:101410000E9481122A980C94BD0A09B1D6E0299A3B
:10142000DBB90E948112299809B1DBE52A9ADBB960
:101430000E9481122A980C94BD0A09B1DBE5299A11
:10144000DBB90E948112299809B1DBE52A9ADBB940
:101450000E9481122A980C94BD0A09B1DFE4299AEE
:10146000DBB90E948112299809B1DBE52A9ADBB920
:101470000E9481122A980C94BD0A09B1D6E6299AD5
:10148000DBB90E948112299809B1DBE52A9ADBB900
:101490000E9481122A980C94BD0A09B1DDE6299AAE
:1014A000DBB90E948112299809B1DBE52A9ADBB9E0
:1014B0000E9481122A980C94BD0A09B1DDEF299A85
:1014C000DBB90E948112299809B1DBE52A9ADBB9C0
:1014D0000E9481122A980C94BD0A09B1D7E0299A7A
:1014E000DBB90E948112299809B1DBE52A9ADBB9A0
:1014F0000E9481122A980C94BD0A09B1DFE7299A4B
:10150000DBB90E948112299809B1DBE52A9ADBB97F
:101510000E9481122A980C94BD0A09B1D7E6299A33
:10152000DBB90E948112299809B1DBE52A9ADBB95F
:101530000E9481122A980C94BD0A09B1DFE3299A0E
:10154000DBB90E948112299809B1DFE42A9ADBB93C
:101550000E9481122A980C94BD0A09B1D6E0299AFA
:10156000DBB90E948112299809B1DFE42A9ADBB91C
:101570000E9481122A980C94BD0A50300FB701FDC9
:101580000C94F90A51300FB701FD0C94080B52303E
:101590000FB701FD0C94170B53300FB701FD0C94DE
:1015A000260B54300FB701FD0C94350B55300FB797
:1015B00001FD0C94440B56300FB701FD0C94530BF6
:1015C00057300FB701FD0C94620B58300FB701FD77
:1015D0000C94710B59300FB701FD0C94800B5A30ED
:1015E0000FB701FD0C948F0B5B300FB701FD0C940E
:1015F0009E0B09B1D6E02B9ADBB90E9481122B9881
:1016000009B1DFE32C9ADBB90E9481122C9808956E
:1016100009B1DBE52B9ADBB90E9481122B9809B145
:10162000DFE32C9ADBB90E9481122C98089509B14E
:10163000DFE42B9ADBB90E9481122B9809B1DFE31A
:101640002C9ADBB90E9481122C98089509B1D6E634
:101650002B9ADBB90E9481122B9809B1DFE32C9AF7
:10166000DBB90E9481122C98089509B1DDE62B9A0E
:10167000DBB90E9481122B9809B1DFE32C9ADBB908
:101680000E9481122C98089509B1DDEF2B9ADBB9E5
:101690000E9481122B9809B1DFE32C9ADBB90E94DA
:1016A00081122C98089509B1D7E02B9ADBB90E94DA
:1016B00081122B9809B1DFE32C9ADBB90E948112C9
:1016C0002C98089509B1DFE72B9ADBB90E948112AB
:1016D0002B9809B1DFE32C9ADBB90E9481122C9878
:1016E000089509B1D7E62B9ADBB90E9481122B9895
:1016F00009B1DFE32C9ADBB90E9481122C9808957E
:1017000009B1DFE32B9ADBB90E9481122B9809B152
:10171000D6E02C9ADBB90E9481122C98089509B169
:10172000D6E02B9ADBB90E9481122B9809B1D6E042
:101730002C9ADBB90E9481122C98089509B1DBE53F
:101740002B9ADBB90E9481122B9809B1D6E02C9A12
:10175000DBB90E9481122C980895089570300FB75C
:1017600001FD0C94DC0C71300FB701FD0C94EC0CF6
:1017700072300FB701FD0C94FC0C73300FB701FDF4
:101780000C940C0D74300FB701FD0C941C0D7530CA
:101790000FB701FD0C942C0D76300FB701FD0C94A2
:1017A0003C0D77300FB701FD0C944C0D78300FB71E
:1017B00001FD0C945C0D79300FB701FD0C946C0D9C
:1017C0007A300FB701FD0C947C0D7B300FB701FD13
:1017D0000C948C0D7C300FB701FD0C949C0D7D306A
:1017E0000FB701FD0C94AC0D7E300FB701FD0C94CA
:1017F000BC0D7F300FB701FD0C94CC0D70310FB7CD
:1018000001FD0C94DC0D71310FB701FD0C94EC0D52
:1018100072310FB701FD0C94FC0D73310FB701FD50
:101820000C940C0E74310FB701FD0C941C0E753125
:101830000FB701FD0C942C0E76310FB701FD0C94FF
:101840003C0E77310FB701FD0C944C0E78310FB779
:1018500001FD0C945C0E79310FB701FD0C946C0EF8
:101860007A310FB701FD0C947C0E7B310FB701FD6F
:101870000C948C0E7C310FB701FD0C949C0E7D31C5
:101880000FB701FD0C94AC0E7E310FB701FD0C9427
:10189000BC0E7F310FB701FD0C94CC0E70320FB728
:1018A00001FD0C94DC0E71320FB701FD0C94EC0EAF
:1018B00072320FB701FD0C94FC0E73320FB701FDAD
:1018C0000C940C0F74320FB701FD0C941C0F753281
:1018D0000FB701FD0C942C0F76320FB701FD0C945D
:1018E0003C0F77320FB701FD0C944C0F78320FB7D5
:1018F00001FD0C945C0F79320FB701FD0C946C0F55
:101900007A320FB701FD0C947C0F7B320FB701FDCB
:101910000C948C0F7C320FB701FD0C949C0F7D3220
:101920000FB701FD0C94AC0F7E320FB701FD0C9484
:10193000BC0F7F320FB701FD0C94CC0F70330FB783
:1019400001FD0C94DC0F71330FB701FD0C94EC0F0B
:1019500072330FB701FD0C94FC0F73330FB701FD09
:101960000C940C1074330FB701FD0C941C107533DC
:101970000FB701FD0C942C1076330FB701FD0C94BA
:101980003C1077330FB701FD0C944C1078330FB730
:1019900001FD0C945C1079330FB701FD0C946C10B1
:1019A0007A330FB701FD0C947C107B330FB701FD28
:1019B0000C948C100C949C1009B1DFE3299ADBB9CC
:1019C0000E948112299809B1DFE32A9ADBB90E94AB
:1019D00081122A980C949C1009B1D6E0299ADBB99F
:1019E0000E948112299809B1DFE32A9ADBB90E948B
:1019F00081122A980C949C1009B1DBE5299ADBB975
:101A00000E948112299809B1DFE32A9ADBB90E946A
:101A100081122A980C949C1009B1DFE4299ADBB951
:101A20000E948112299809B1DFE32A9ADBB90E944A
:101A300081122A980C949C1009B1D6E6299ADBB938
:101A40000E948112299809B1DFE32A9ADBB90E942A
:101A500081122A980C949C1009B1DDE6299ADBB911
:101A60000E948112299809B1DFE32A9ADBB90E940A
:101A700081122A980C949C1009B1DDEF299ADBB9E8
:101A80000E948112299809B1DFE32A9ADBB90E94EA
:101A900081122A980C949C1009B1D7E0299ADBB9DD
:101AA0000E948112299809B1DFE32A9ADBB90E94CA
:101AB00081122A980C949C1009B1DFE7299ADBB9AE
:101AC0000E948112299809B1DFE32A9ADBB90E94AA
:101AD00081122A980C949C1009B1D7E6299ADBB997
:101AE0000E948112299809B1DFE32A9ADBB90E948A
:101AF00081122A980C949C1009B1DFE3299ADBB972
:101B00000E948112299809B1D6E02A9ADBB90E9475
:101B100081122A980C949C1009B1D6E0299ADBB95D
:101B20000E948112299809B1D6E02A9ADBB90E9455
:101B300081122A980C949C1009B1DBE5299ADBB933
:101B40000E948112299809B1D6E02A9ADBB90E9435
:101B500081122A980C949C1009B1DFE4299ADBB910
:101B60000E948112299809B1D6E02A9ADBB90E9415
:101B700081122A980C949C1009B1D6E6299ADBB9F7
:101B80000E948112299809B1D6E02A9ADBB90E94F5
:101B900081122A980C949C1009B1DDE6299ADBB9D0
:101BA0000E948112299809B1D6E02A9ADBB90E94D5
:101BB00081122A980C949C1009B1DDEF299ADBB9A7
:101BC0000E948112299809B1D6E02A9ADBB90E94B5
:101BD00081122A980C949C1009B1D7E0299ADBB99C
:101BE0000E948112299809B1D6E02A9ADBB90E9495
:101BF00081122A980C949C1009B1DFE7299ADBB96D
:101C00000E948112299809B1D6E02A9ADBB90E9474
:101C100081122A980C949C1009B1D7E6299ADBB955
:101C20000E948112299809B1D6E02A9ADBB90E9454
:101C300081122A980C949C1009B1DFE3299ADBB930
:101C40000E948112299809B1DBE52A9ADBB90E942A
:101C500081122A980C949C1009B1D6E0299ADBB91C
:101C60000E948112299809B1DBE52A9ADBB90E940A
:101C700081122A980C949C1009B1DBE5299ADBB9F2
:101C80000E948112299809B1DBE52A9ADBB90E94EA
:101C900081122A980C949C1009B1DFE4299ADBB9CF
:101CA0000E948112299809B1DBE52A9ADBB90E94CA
:101CB00081122A980C949C1009B1D6E6299ADBB9B6
:101CC0000E948112299809B1DBE52A9ADBB90E94AA
:101CD00081122A980C949C1009B1DDE6299ADBB98F
:101CE0000E948112299809B1DBE52A9ADBB90E948A
:101CF00081122A980C949C1009B1DDEF299ADBB966
:101D00000E948112299809B1DBE52A9ADBB90E9469
:101D100081122A980C949C1009B1D7E0299ADBB95A
:101D20000E948112299809B1DBE52A9ADBB90E9449
:101D300081122A980C949C1009B1DFE7299ADBB92B
:101D40000E948112299809B1DBE52A9ADBB90E9429
:101D500081122A980C949C1009B1D7E6299ADBB914
:101D60000E948112299809B1DBE52A9ADBB90E9409
:101D700081122A980C949C1009B1DFE3299ADBB9EF
:101D80000E948112299809B1DFE42A9ADBB90E94E6
:101D900081122A980C949C1009B1D6E0299ADBB9DB
:101DA0000E948112299809B1DFE42A9ADBB90E94C6
:101DB00081122A980C949C1009B1DBE5299ADBB9B1
:101DC0000E948112299809B1DFE42A9ADBB90E94A6
:101DD00081122A980C949C1009B1DFE4299ADBB98E
:101DE0000E948112299809B1DFE42A9ADBB90E9486
:101DF00081122A980C949C1009B1D6E6299ADBB975
:101E00000E948112299809B1DFE42A9ADBB90E9465
:101E100081122A980C949C1009B1DDE6299ADBB94D
:101E20000E948112299809B1DFE42A9ADBB90E9445
:101E300081122A980C949C1009B1DDEF299ADBB924
:101E40000E948112299809B1DFE42A9ADBB90E9425
:101E500081122A980C949C1009B1D7E0299ADBB919
:101E60000E948112299809B1DFE42A9ADBB90E9405
:101E700081122A980C949C1009B1DFE7299ADBB9EA
:101E80000E948112299809B1DFE42A9ADBB90E94E5
:101E900081122A980C949C1009B1D7E6299ADBB9D3
:101EA0000E948112299809B1DFE42A9ADBB90E94C5
:101EB00081122A980C949C1009B1DFE3299ADBB9AE
:101EC0000E948112299809B1D6E62A9ADBB90E94AC
:101ED00081122A980C949C1009B1D6E0299ADBB99A
:101EE0000E948112299809B1D6E62A9ADBB90E948C
:101EF00081122A980C949C1009B1DBE5299ADBB970
:101F00000E948112299809B1D6E62A9ADBB90E946B
:101F100081122A980C949C1009B1DFE4299ADBB94C
:101F20000E948112299809B1D6E62A9ADBB90E944B
:101F300081122A980C949C1009B1D6E6299ADBB933
:101F40000E948112299809B1D6E62A9ADBB90E942B
:101F500081122A980C949C1009B1DDE6299ADBB90C
:101F60000E948112299809B1D6E62A9ADBB90E940B
:101F700081122A980C949C1009B1DDEF299ADBB9E3
:101F80000E948112299809B1D6E62A9ADBB90E94EB
:101F900081122A980C949C1009B1D7E0299ADBB9D8
:101FA0000E948112299809B1D6E62A9ADBB90E94CB
:101FB00081122A980C949C1009B1DFE7299ADBB9A9
:101FC0000E948112299809B1D6E62A9ADBB90E94AB
:101FD00081122A980C949C1009B1D7E6299ADBB992
:101FE0000E948112299809B1D6E62A9ADBB90E948B
:101FF00081122A980C949C1009B1DFE3299ADBB96D
:102000000E948112299809B1DDE62A9ADBB90E9463
:1020100081122A980C949C1009B1D6E0299ADBB958
:102020000E948112299809B1DDE62A9ADBB90E9443
:1020300081122A980C949C1009B1DBE5299ADBB92E
:102040000E948112299809B1DDE62A9ADBB90E9423
:1020500081122A980C949C1009B1DFE4299ADBB90B
:102060000E948112299809B1DDE62A9ADBB90E9403
:1020700081122A980C949C1009B1D6E6299ADBB9F2
:102080000E948112299809B1DDE62A9ADBB90E94E3
:1020900081122A980C949C1009B1DBE5299ADBB9CE
:1020A0000E948112299809B1DDE62A9ADBB90E94C3
:1020B00081122A980C949C1009B1DDE7299ADBB9AA
:1020C0000E948112299809B1DDE62A9ADBB90E94A3
:1020D00081122A980C949C1009B1D7E0299ADBB997
:1020E0000E948112299809B1DDE62A9ADBB90E9483
:1020F00081122A980C949C1009B1DFE7299ADBB968
:102100000E948112299809B1DDE62A9ADBB90E9462
:1021100081122A980C949C1009B1D7E6299ADBB950
:102120000E948112299809B1DDE62A9ADBB90E9442
:1021300081122A980C949C1080300FB701FD0C94EA
:10214000141181300FB701FD0C94231182300FB7A9
:1021500001FD0C94321183300FB701FD0C94411135
:1021600084300FB701FD0C94501185300FB701FD7D
:102170000C945F1186300FB701FD0C946E118730FF
:102180000FB701FD0C947D1188300FB701FD0C9441
:102190008C1189300FB701FD0C949B118A300FB759
:1021A00001FD0C94AA118B300FB701FD0C94B911ED
:1021B0008C300FB701FD0C94C8118D300FB701FDA5
:1021C0000C94D7118E300FB701FD0C94E6118F30AF
:1021D0000FB701FD0C94F51180310FB701FD0C9480
:1021E000041281310FB701FD0C94131282310FB725
:1021F00001FD0C94221283310FB701FD0C943112B2
:1022000084310FB701FD0C94401285310FB701FDE9
:102210000C944F1286310FB701FD0C946212873176
:102220000FB701FD0C94711209B1DFE32B9ADBB9F2
:102230000E9481122B9809B1DFE32C9ADBB90E942E
:1022400081122C98089509B1D6E02B9ADBB90E942F
:1022500081122B9809B1DFE32C9ADBB90E9481121D
:102260002C98089509B1DBE52B9ADBB90E94811205
:102270002B9809B1DFE32C9ADBB90E9481122C98CC
:10228000089509B1DFE42B9ADBB90E9481122B98E3
:1022900009B1DFE32C9ADBB90E9481122C980895D2
:1022A00009B1D6E62B9ADBB90E9481122B9809B1AD
:1022B000DFE32C9ADBB90E9481122C98089509B1B2
:1022C000DDE62B9ADBB90E9481122B9809B1DFE37E
:1022D0002C9ADBB90E9481122C98089509B1DDEF88
:1022E0002B9ADBB90E9481122B9809B1DFE32C9A5B
:1022F000DBB90E9481122C98089509B1D7E02B9A7E
:10230000DBB90E9481122B9809B1DFE32C9ADBB96B
:102310000E9481122C98089509B1DFE72B9ADBB94E
:102320000E9481122B9809B1DFE32C9ADBB90E943D
:1023300081122C98089509B1D7E62B9ADBB90E9437
:1023400081122B9809B1DFE32C9ADBB90E9481122C
:102350002C98089509B1DFE32B9ADBB90E94811212
:102360002B9809B1D6E02C9ADBB90E9481122C98E7
:10237000089509B1D6E02B9ADBB90E9481122B98FF
:1023800009B1D6E02C9ADBB90E9481122C980895ED
:1023900009B1DBE52B9ADBB90E9481122B9809B1B8
:1023A000D6E02C9ADBB90E9481122C98089509B1CD
:1023B000DFE42B9ADBB90E9481122B9809B1D6E099
:1023C0002C9ADBB90E9481122C98089509B1D6E6A7
:1023D0002B9ADBB90E9481122B9809B1D6E02C9A76
:1023E000DBB90E9481122C98089509B1DDE62B9A81
:1023F000DBB90E9481122B9809B1D6E02C9ADBB987
:102400000E9481122C98089509B1DDEF2B9ADBB957
:102410000E9481122B9809B1D6E02C9ADBB90E9458
:1024200081122C98089509B1D7E02B9ADBB90E944C
:1024300081122B9809B1D6E02C9ADBB90E94811247
:102440002C98089509B1DFE72B9ADBB90E9481121D
:102450002B9809B1D6E02C9ADBB90E9481122C98F6
:10246000089509B1D7E62B9ADBB90E9481122B9807
:1024700009B1D6E02C9ADBB90E9481122C980895FC
:1024800009B1DFE32B9ADBB90E9481122B9809B1C5
:10249000DBE52C9ADBB90E9481122C98089509B1D2
:1024A000D6E007FD5F9A2B9ADBB90E9481122B9828
:1024B00009B1DBE507FD5F9A2C9ADBB90E94811216
:1024C0002C98089509B1DBE52B9ADBB90E948112A3
:1024D0002B9809B1DBE52C9ADBB90E9481122C986C
:1024E000089509B1DFE42B9ADBB90E9481122B9881
:1024F00009B1DBE52C9ADBB90E9481122C98089572
:10250000089500E003950639E9F7089505E005BD53
:102510000CE006BD01E000936E0008950F930FB725
:102520000F93329B639568300FB701FD60E0339BDA
:102530000C94FB12603099F06130B1F06230C9F058
:10254000633011F1643059F16530A1F16630E9F181
:1025500067300FB701FD0C94F0120C94FF124498F1
:1025600045982D980C94FF12449845982D9A0C94F8
:10257000FF124498459A2D98922F309B9395319B4A
:102580009A95292F0C94FF124498459A2D9AA32FBF
:10259000309BA395319BAA953A2F0C94FF12449A35
:1025A00045982D98B42F309BB395319BBA954B2FFE
:1025B0000C94FF12449A45982D9AC52F309BC395D1
:1025C000319BCA955C2F0C94FF12449A459A2D9822
:1025D000792F309B7395319B7A95972F0C94FF122E
:1025E000449A459A2D9A8A2F309B8395319B8A95E0
:1025F000A82F0C94FF12189928980C94FF12D99ABE
:102600000F910FBF0F9118954F9A072D0395023028
:0C26100011F4139500E0702EA89A1895A4
:00000001FF
